{
  "contractName": "dBank",
  "abi": [
    {
      "inputs": [
        {
          "internalType": "contract Token",
          "name": "_tokenContract",
          "type": "address"
        }
      ],
      "stateMutability": "nonpayable",
      "type": "constructor"
    },
    {
      "anonymous": false,
      "inputs": [
        {
          "indexed": false,
          "internalType": "uint256",
          "name": "amount",
          "type": "uint256"
        }
      ],
      "name": "Borrow",
      "type": "event"
    },
    {
      "anonymous": false,
      "inputs": [
        {
          "indexed": true,
          "internalType": "address",
          "name": "user",
          "type": "address"
        },
        {
          "indexed": false,
          "internalType": "uint256",
          "name": "amount",
          "type": "uint256"
        },
        {
          "indexed": false,
          "internalType": "uint256",
          "name": "time",
          "type": "uint256"
        }
      ],
      "name": "Deposit",
      "type": "event"
    },
    {
      "anonymous": false,
      "inputs": [
        {
          "indexed": false,
          "internalType": "uint256",
          "name": "amount",
          "type": "uint256"
        }
      ],
      "name": "PayOff",
      "type": "event"
    },
    {
      "anonymous": false,
      "inputs": [
        {
          "indexed": true,
          "internalType": "address",
          "name": "user",
          "type": "address"
        },
        {
          "indexed": false,
          "internalType": "uint256",
          "name": "amount",
          "type": "uint256"
        },
        {
          "indexed": false,
          "internalType": "uint256",
          "name": "time",
          "type": "uint256"
        },
        {
          "indexed": false,
          "internalType": "uint256",
          "name": "interest",
          "type": "uint256"
        }
      ],
      "name": "Withdraw",
      "type": "event"
    },
    {
      "inputs": [
        {
          "internalType": "address",
          "name": "",
          "type": "address"
        }
      ],
      "name": "depositStart",
      "outputs": [
        {
          "internalType": "uint256",
          "name": "",
          "type": "uint256"
        }
      ],
      "stateMutability": "view",
      "type": "function",
      "constant": true
    },
    {
      "inputs": [
        {
          "internalType": "address",
          "name": "",
          "type": "address"
        }
      ],
      "name": "etherBalanceOf",
      "outputs": [
        {
          "internalType": "uint256",
          "name": "",
          "type": "uint256"
        }
      ],
      "stateMutability": "view",
      "type": "function",
      "constant": true
    },
    {
      "inputs": [
        {
          "internalType": "address",
          "name": "",
          "type": "address"
        }
      ],
      "name": "hasDeposited",
      "outputs": [
        {
          "internalType": "bool",
          "name": "",
          "type": "bool"
        }
      ],
      "stateMutability": "view",
      "type": "function",
      "constant": true
    },
    {
      "inputs": [],
      "name": "interestRate",
      "outputs": [
        {
          "internalType": "uint256",
          "name": "",
          "type": "uint256"
        }
      ],
      "stateMutability": "view",
      "type": "function",
      "constant": true
    },
    {
      "inputs": [],
      "name": "deposit",
      "outputs": [],
      "stateMutability": "payable",
      "type": "function",
      "payable": true
    },
    {
      "inputs": [],
      "name": "withdraw",
      "outputs": [],
      "stateMutability": "nonpayable",
      "type": "function"
    },
    {
      "inputs": [
        {
          "internalType": "uint256",
          "name": "_amount",
          "type": "uint256"
        }
      ],
      "name": "borrow",
      "outputs": [],
      "stateMutability": "payable",
      "type": "function",
      "payable": true
    },
    {
      "inputs": [
        {
          "internalType": "uint256",
          "name": "_amount",
          "type": "uint256"
        }
      ],
      "name": "payOff",
      "outputs": [],
      "stateMutability": "nonpayable",
      "type": "function"
    }
  ],
  "bytecode": "0x608060405263bce02f4d60015534801561001857600080fd5b506040516109f13803806109f18339818101604052602081101561003b57600080fd5b8101908080519060200190929190505050806000806101000a81548173ffffffffffffffffffffffffffffffffffffffff021916908373ffffffffffffffffffffffffffffffffffffffff160217905550506109558061009c6000396000f3fe60806040526004361061007b5760003560e01c8063c5ebeaec1161004e578063c5ebeaec14610162578063d0e30db014610190578063f2c16e6f1461019a578063ff87930a146102015761007b565b8063179fc99f14610080578063243582ff146100e55780633ccfd60b146101205780637c3a00fd14610137575b600080fd5b34801561008c57600080fd5b506100cf600480360360208110156100a357600080fd5b81019080803573ffffffffffffffffffffffffffffffffffffffff169060200190929190505050610266565b6040518082815260200191505060405180910390f35b3480156100f157600080fd5b5061011e6004803603602081101561010857600080fd5b810190808035906020019092919050505061027e565b005b34801561012c57600080fd5b50610135610281565b005b34801561014357600080fd5b5061014c61065a565b6040518082815260200191505060405180910390f35b61018e6004803603602081101561017857600080fd5b8101908080359060200190929190505050610660565b005b610198610663565b005b3480156101a657600080fd5b506101e9600480360360208110156101bd57600080fd5b81019080803573ffffffffffffffffffffffffffffffffffffffff16906020019092919050505061089e565b60405180821515815260200191505060405180910390f35b34801561020d57600080fd5b506102506004803603602081101561022457600080fd5b81019080803573ffffffffffffffffffffffffffffffffffffffff1690602001909291905050506108be565b6040518082815260200191505060405180910390f35b60046020528060005260406000206000915090505481565b50565b600260003373ffffffffffffffffffffffffffffffffffffffff1673ffffffffffffffffffffffffffffffffffffffff16815260200190815260200160002060009054906101000a900460ff16610340576040517f08c379a000000000000000000000000000000000000000000000000000000000815260040180806020018281038252601d8152602001807f446964206e6f74206d616b6520616e79206465706f736974732079657400000081525060200191505060405180910390fd5b6000600460003373ffffffffffffffffffffffffffffffffffffffff1673ffffffffffffffffffffffffffffffffffffffff1681526020019081526020016000205490506000600360003373ffffffffffffffffffffffffffffffffffffffff1673ffffffffffffffffffffffffffffffffffffffff16815260200190815260200160002054420390506000670de0b6b3a7640000600460003373ffffffffffffffffffffffffffffffffffffffff1673ffffffffffffffffffffffffffffffffffffffff168152602001908152602001600020546001548402028161042257fe5b0490503373ffffffffffffffffffffffffffffffffffffffff166108fc849081150290604051600060405180830381858888f1935050505015801561046b573d6000803e3d6000fd5b5060008054906101000a900473ffffffffffffffffffffffffffffffffffffffff1673ffffffffffffffffffffffffffffffffffffffff166340c10f1933836040518363ffffffff1660e01b8152600401808373ffffffffffffffffffffffffffffffffffffffff16815260200182815260200192505050600060405180830381600087803b1580156104fd57600080fd5b505af1158015610511573d6000803e3d6000fd5b505050506000600460003373ffffffffffffffffffffffffffffffffffffffff1673ffffffffffffffffffffffffffffffffffffffff168152602001908152602001600020819055506000600260003373ffffffffffffffffffffffffffffffffffffffff1673ffffffffffffffffffffffffffffffffffffffff16815260200190815260200160002060006101000a81548160ff0219169083151502179055506000600360003373ffffffffffffffffffffffffffffffffffffffff1673ffffffffffffffffffffffffffffffffffffffff168152602001908152602001600020819055503373ffffffffffffffffffffffffffffffffffffffff167f02f25270a4d87bea75db541cdfe559334a275b4a233520ed6c0a2429667cca9484428460405180848152602001838152602001828152602001935050505060405180910390a2505050565b60015481565b50565b600260003373ffffffffffffffffffffffffffffffffffffffff1673ffffffffffffffffffffffffffffffffffffffff16815260200190815260200160002060009054906101000a900460ff1615610706576040517f08c379a00000000000000000000000000000000000000000000000000000000081526004018080602001828103825260228152602001806108d76022913960400191505060405180910390fd5b662386f26fc10000341015610766576040517f08c379a00000000000000000000000000000000000000000000000000000000081526004018080602001828103825260278152602001806108f96027913960400191505060405180910390fd5b34600460003373ffffffffffffffffffffffffffffffffffffffff1673ffffffffffffffffffffffffffffffffffffffff168152602001908152602001600020819055506001600260003373ffffffffffffffffffffffffffffffffffffffff1673ffffffffffffffffffffffffffffffffffffffff16815260200190815260200160002060006101000a81548160ff02191690831515021790555042600360003373ffffffffffffffffffffffffffffffffffffffff1673ffffffffffffffffffffffffffffffffffffffff168152602001908152602001600020819055503373ffffffffffffffffffffffffffffffffffffffff167f90890809c654f11d6e72a28fa60149770a0d11ec6c92319d6ceb2bb0a4ea1a153442604051808381526020018281526020019250505060405180910390a2565b60026020528060005260406000206000915054906101000a900460ff1681565b6003602052806000526040600020600091509050548156fe5573657220616c72656164792068617320616e20616374697665206465706f7369745468652076616c7565206d7573742062652067726561746572207468656e20302e303120455448a26469706673582212200f4a4033eb6fcd1c738f99b75c1e1fdd73fa18b288de6bf908b5271d5ceb6e8064736f6c63430007060033",
  "immutableReferences": {},
  "source": "// SPDX-License-Identifier: MIT\r\npragma solidity >=0.6.0 <0.8.0;\r\n\r\nimport \"./Token.sol\";\r\n\r\ncontract dBank {\r\n\r\n\tToken private tokenContract;\r\n    uint public interestRate = 3168808781;  // 1e17 (10% APY of 1ETH) / 31557600 (sec in 365.25 days)\r\n\r\n    mapping(address => bool) public hasDeposited;\r\n    mapping(address => uint) public depositStart;\r\n    mapping(address => uint) public etherBalanceOf;\r\n\r\n    event Deposit(address indexed user, uint amount, uint time);\r\n    event Withdraw(address indexed user, uint amount, uint time, uint interest);\r\n    event Borrow(uint amount);\r\n    event PayOff(uint amount);\r\n\r\n\tconstructor(Token _tokenContract) {\r\n        tokenContract = _tokenContract;\r\n    }\r\n\r\n\tfunction deposit() payable public {\r\n        require(!hasDeposited[msg.sender], \"User already has an active deposit\");\r\n\t\trequire(msg.value >= 10 ** 16, \"The value must be greater then 0.01 ETH\");\r\n\r\n\t\tetherBalanceOf[msg.sender] =   msg.value;\r\n        hasDeposited[msg.sender] = true;\r\n\r\n        depositStart[msg.sender] = block.timestamp;\r\n\r\n        emit Deposit(msg.sender, msg.value, block.timestamp);\r\n\t}\r\n\r\n\tfunction withdraw() public {\r\n\t\trequire(hasDeposited[msg.sender], \"Did not make any deposits yet\");\r\n\t\tuint balance = etherBalanceOf[msg.sender];\r\n\r\n\t\tuint time = block.timestamp - depositStart[msg.sender];\r\n\t\tuint interest = time * interestRate * etherBalanceOf[msg.sender] / 1e18;\r\n\r\n\t\tmsg.sender.transfer(balance);\r\n\t\ttokenContract.mint(msg.sender, interest);\r\n\r\n        etherBalanceOf[msg.sender] = 0;\r\n        hasDeposited[msg.sender] = false;\r\n        depositStart[msg.sender] = 0;\r\n\r\n\t\temit Withdraw(msg.sender, balance, block.timestamp, interest);\r\n\t}\r\n\r\n\tfunction borrow(uint _amount) payable public {\r\n\t\t//check if collateral is >= than 0.01 ETH\r\n\t\t//check if user doesn't have active loan\r\n\r\n\t\t//add msg.value to ether collateral\r\n\r\n\t\t//calc tokens amount to mint, 50% of msg.value\r\n\r\n\t\t//mint&send tokens to user\r\n\r\n\t\t//activate borrower's loan status\r\n\r\n\t\t//emit event\r\n\t}\r\n\r\n\tfunction payOff(uint _amount) public {\r\n\t\t//check if loan is active\r\n\t\t//transfer tokens from user back to the contract\r\n\r\n\t\t//calc fee\r\n\r\n\t\t//send user's collateral minus fee\r\n\r\n\t\t//reset borrower's data\r\n\r\n\t\t//emit event\r\n\t}\r\n}",
  "sourcePath": "/home/adrian/Desktop/DecentralizedBank/src/contracts/dBank.sol",
  "compiler": {
    "name": "solc",
    "version": "0.7.6+commit.7338295f.Emscripten.clang"
  },
  "schemaVersion": "3.4.1",
  "updatedAt": "2021-07-11T00:05:52.308Z",
  "networkType": "ethereum",
  "devdoc": {
    "kind": "dev",
    "methods": {},
    "version": 1
  },
  "userdoc": {
    "kind": "user",
    "methods": {},
    "version": 1
  }
}