{
  "contractName": "dBank",
  "abi": [
    {
      "inputs": [
        {
          "internalType": "contract Token",
          "name": "_tokenContract",
          "type": "address"
        }
      ],
      "stateMutability": "nonpayable",
      "type": "constructor"
    },
    {
      "anonymous": false,
      "inputs": [
        {
          "indexed": true,
          "internalType": "address",
          "name": "user",
          "type": "address"
        },
        {
          "indexed": false,
          "internalType": "uint256",
          "name": "amountEther",
          "type": "uint256"
        },
        {
          "indexed": false,
          "internalType": "uint256",
          "name": "amountToken",
          "type": "uint256"
        },
        {
          "indexed": false,
          "internalType": "uint256",
          "name": "time",
          "type": "uint256"
        }
      ],
      "name": "Borrow",
      "type": "event"
    },
    {
      "anonymous": false,
      "inputs": [
        {
          "indexed": true,
          "internalType": "address",
          "name": "user",
          "type": "address"
        },
        {
          "indexed": false,
          "internalType": "uint256",
          "name": "amountEther",
          "type": "uint256"
        },
        {
          "indexed": false,
          "internalType": "uint256",
          "name": "amountToken",
          "type": "uint256"
        },
        {
          "indexed": false,
          "internalType": "uint256",
          "name": "time",
          "type": "uint256"
        }
      ],
      "name": "Deposit",
      "type": "event"
    },
    {
      "anonymous": false,
      "inputs": [
        {
          "indexed": true,
          "internalType": "address",
          "name": "user",
          "type": "address"
        },
        {
          "indexed": false,
          "internalType": "uint256",
          "name": "interest",
          "type": "uint256"
        },
        {
          "indexed": false,
          "internalType": "uint256",
          "name": "time",
          "type": "uint256"
        }
      ],
      "name": "Harvest",
      "type": "event"
    },
    {
      "anonymous": false,
      "inputs": [
        {
          "indexed": true,
          "internalType": "address",
          "name": "user",
          "type": "address"
        },
        {
          "indexed": false,
          "internalType": "uint256",
          "name": "amountEther",
          "type": "uint256"
        },
        {
          "indexed": false,
          "internalType": "uint256",
          "name": "amountToken",
          "type": "uint256"
        },
        {
          "indexed": false,
          "internalType": "uint256",
          "name": "interest",
          "type": "uint256"
        },
        {
          "indexed": false,
          "internalType": "uint256",
          "name": "time",
          "type": "uint256"
        }
      ],
      "name": "PayOff",
      "type": "event"
    },
    {
      "anonymous": false,
      "inputs": [
        {
          "indexed": true,
          "internalType": "address",
          "name": "user",
          "type": "address"
        },
        {
          "indexed": false,
          "internalType": "uint256",
          "name": "amountEther",
          "type": "uint256"
        },
        {
          "indexed": false,
          "internalType": "uint256",
          "name": "amountToken",
          "type": "uint256"
        },
        {
          "indexed": false,
          "internalType": "uint256",
          "name": "interest",
          "type": "uint256"
        },
        {
          "indexed": false,
          "internalType": "uint256",
          "name": "time",
          "type": "uint256"
        }
      ],
      "name": "Withdraw",
      "type": "event"
    },
    {
      "inputs": [
        {
          "internalType": "address",
          "name": "",
          "type": "address"
        }
      ],
      "name": "availableValueOf",
      "outputs": [
        {
          "internalType": "uint256",
          "name": "",
          "type": "uint256"
        }
      ],
      "stateMutability": "view",
      "type": "function"
    },
    {
      "inputs": [],
      "name": "collateral",
      "outputs": [
        {
          "internalType": "uint16",
          "name": "",
          "type": "uint16"
        }
      ],
      "stateMutability": "view",
      "type": "function"
    },
    {
      "inputs": [],
      "name": "conversionRate",
      "outputs": [
        {
          "internalType": "uint256",
          "name": "",
          "type": "uint256"
        }
      ],
      "stateMutability": "view",
      "type": "function"
    },
    {
      "inputs": [
        {
          "internalType": "address",
          "name": "",
          "type": "address"
        }
      ],
      "name": "depositEtherStart",
      "outputs": [
        {
          "internalType": "uint256",
          "name": "",
          "type": "uint256"
        }
      ],
      "stateMutability": "view",
      "type": "function"
    },
    {
      "inputs": [
        {
          "internalType": "address",
          "name": "",
          "type": "address"
        }
      ],
      "name": "depositTokenStart",
      "outputs": [
        {
          "internalType": "uint256",
          "name": "",
          "type": "uint256"
        }
      ],
      "stateMutability": "view",
      "type": "function"
    },
    {
      "inputs": [
        {
          "internalType": "address",
          "name": "",
          "type": "address"
        }
      ],
      "name": "dueInterestForEther",
      "outputs": [
        {
          "internalType": "uint256",
          "name": "",
          "type": "uint256"
        }
      ],
      "stateMutability": "view",
      "type": "function"
    },
    {
      "inputs": [
        {
          "internalType": "address",
          "name": "",
          "type": "address"
        }
      ],
      "name": "dueInterestForToken",
      "outputs": [
        {
          "internalType": "uint256",
          "name": "",
          "type": "uint256"
        }
      ],
      "stateMutability": "view",
      "type": "function"
    },
    {
      "inputs": [],
      "name": "etherAPR",
      "outputs": [
        {
          "internalType": "uint16",
          "name": "",
          "type": "uint16"
        }
      ],
      "stateMutability": "view",
      "type": "function"
    },
    {
      "inputs": [],
      "name": "etherAPY",
      "outputs": [
        {
          "internalType": "uint16",
          "name": "",
          "type": "uint16"
        }
      ],
      "stateMutability": "view",
      "type": "function"
    },
    {
      "inputs": [
        {
          "internalType": "address",
          "name": "",
          "type": "address"
        }
      ],
      "name": "etherBalanceOf",
      "outputs": [
        {
          "internalType": "uint256",
          "name": "",
          "type": "uint256"
        }
      ],
      "stateMutability": "view",
      "type": "function"
    },
    {
      "inputs": [
        {
          "internalType": "address",
          "name": "",
          "type": "address"
        }
      ],
      "name": "etherBorrowedBy",
      "outputs": [
        {
          "internalType": "uint256",
          "name": "",
          "type": "uint256"
        }
      ],
      "stateMutability": "view",
      "type": "function"
    },
    {
      "inputs": [
        {
          "internalType": "address",
          "name": "",
          "type": "address"
        }
      ],
      "name": "hasBorrowedEther",
      "outputs": [
        {
          "internalType": "bool",
          "name": "",
          "type": "bool"
        }
      ],
      "stateMutability": "view",
      "type": "function"
    },
    {
      "inputs": [
        {
          "internalType": "address",
          "name": "",
          "type": "address"
        }
      ],
      "name": "hasBorrowedToken",
      "outputs": [
        {
          "internalType": "bool",
          "name": "",
          "type": "bool"
        }
      ],
      "stateMutability": "view",
      "type": "function"
    },
    {
      "inputs": [
        {
          "internalType": "address",
          "name": "",
          "type": "address"
        }
      ],
      "name": "hasDepositedEther",
      "outputs": [
        {
          "internalType": "bool",
          "name": "",
          "type": "bool"
        }
      ],
      "stateMutability": "view",
      "type": "function"
    },
    {
      "inputs": [
        {
          "internalType": "address",
          "name": "",
          "type": "address"
        }
      ],
      "name": "hasDepositedToken",
      "outputs": [
        {
          "internalType": "bool",
          "name": "",
          "type": "bool"
        }
      ],
      "stateMutability": "view",
      "type": "function"
    },
    {
      "inputs": [
        {
          "internalType": "address",
          "name": "",
          "type": "address"
        }
      ],
      "name": "loanEtherStart",
      "outputs": [
        {
          "internalType": "uint256",
          "name": "",
          "type": "uint256"
        }
      ],
      "stateMutability": "view",
      "type": "function"
    },
    {
      "inputs": [
        {
          "internalType": "address",
          "name": "",
          "type": "address"
        }
      ],
      "name": "loanTokenStart",
      "outputs": [
        {
          "internalType": "uint256",
          "name": "",
          "type": "uint256"
        }
      ],
      "stateMutability": "view",
      "type": "function"
    },
    {
      "inputs": [],
      "name": "secoundsInYear",
      "outputs": [
        {
          "internalType": "uint256",
          "name": "",
          "type": "uint256"
        }
      ],
      "stateMutability": "view",
      "type": "function"
    },
    {
      "inputs": [],
      "name": "tokenAPR",
      "outputs": [
        {
          "internalType": "uint16",
          "name": "",
          "type": "uint16"
        }
      ],
      "stateMutability": "view",
      "type": "function"
    },
    {
      "inputs": [],
      "name": "tokenAPY",
      "outputs": [
        {
          "internalType": "uint16",
          "name": "",
          "type": "uint16"
        }
      ],
      "stateMutability": "view",
      "type": "function"
    },
    {
      "inputs": [
        {
          "internalType": "address",
          "name": "",
          "type": "address"
        }
      ],
      "name": "tokenBalanceOf",
      "outputs": [
        {
          "internalType": "uint256",
          "name": "",
          "type": "uint256"
        }
      ],
      "stateMutability": "view",
      "type": "function"
    },
    {
      "inputs": [
        {
          "internalType": "address",
          "name": "",
          "type": "address"
        }
      ],
      "name": "tokenBorrowedBy",
      "outputs": [
        {
          "internalType": "uint256",
          "name": "",
          "type": "uint256"
        }
      ],
      "stateMutability": "view",
      "type": "function"
    },
    {
      "inputs": [],
      "name": "totalEtherDeposited",
      "outputs": [
        {
          "internalType": "uint256",
          "name": "",
          "type": "uint256"
        }
      ],
      "stateMutability": "view",
      "type": "function"
    },
    {
      "inputs": [],
      "name": "totalTokenDeposited",
      "outputs": [
        {
          "internalType": "uint256",
          "name": "",
          "type": "uint256"
        }
      ],
      "stateMutability": "view",
      "type": "function"
    },
    {
      "inputs": [
        {
          "internalType": "address",
          "name": "",
          "type": "address"
        }
      ],
      "name": "unpayedInterestForEther",
      "outputs": [
        {
          "internalType": "uint256",
          "name": "",
          "type": "uint256"
        }
      ],
      "stateMutability": "view",
      "type": "function"
    },
    {
      "inputs": [
        {
          "internalType": "address",
          "name": "",
          "type": "address"
        }
      ],
      "name": "unpayedInterestForToken",
      "outputs": [
        {
          "internalType": "uint256",
          "name": "",
          "type": "uint256"
        }
      ],
      "stateMutability": "view",
      "type": "function"
    },
    {
      "inputs": [],
      "name": "depositEther",
      "outputs": [],
      "stateMutability": "payable",
      "type": "function"
    },
    {
      "inputs": [
        {
          "internalType": "uint256",
          "name": "_amount",
          "type": "uint256"
        }
      ],
      "name": "depositTokens",
      "outputs": [],
      "stateMutability": "nonpayable",
      "type": "function"
    },
    {
      "inputs": [],
      "name": "harvestInterestForEtherDeposited",
      "outputs": [],
      "stateMutability": "nonpayable",
      "type": "function"
    },
    {
      "inputs": [],
      "name": "harvestInterestForTokenDeposited",
      "outputs": [],
      "stateMutability": "nonpayable",
      "type": "function"
    },
    {
      "inputs": [
        {
          "internalType": "uint256",
          "name": "_amount",
          "type": "uint256"
        }
      ],
      "name": "withdrawEther",
      "outputs": [],
      "stateMutability": "nonpayable",
      "type": "function"
    },
    {
      "inputs": [
        {
          "internalType": "uint256",
          "name": "_amount",
          "type": "uint256"
        }
      ],
      "name": "withdrawToken",
      "outputs": [],
      "stateMutability": "nonpayable",
      "type": "function"
    },
    {
      "inputs": [
        {
          "internalType": "uint256",
          "name": "_amount",
          "type": "uint256"
        }
      ],
      "name": "borrowEther",
      "outputs": [],
      "stateMutability": "nonpayable",
      "type": "function"
    },
    {
      "inputs": [
        {
          "internalType": "uint256",
          "name": "_amount",
          "type": "uint256"
        }
      ],
      "name": "borrowToken",
      "outputs": [],
      "stateMutability": "nonpayable",
      "type": "function"
    },
    {
      "inputs": [],
      "name": "payOffEther",
      "outputs": [],
      "stateMutability": "payable",
      "type": "function"
    },
    {
      "inputs": [
        {
          "internalType": "uint256",
          "name": "_amount",
          "type": "uint256"
        }
      ],
      "name": "payOffToken",
      "outputs": [],
      "stateMutability": "payable",
      "type": "function"
    }
  ],
  "bytecode": "0x6080604052600180556301e187e0600255611f40600360006101000a81548161ffff021916908361ffff1602179055506103e8600360026101000a81548161ffff021916908361ffff1602179055506105dc600360046101000a81548161ffff021916908361ffff1602179055506107d0600360066101000a81548161ffff021916908361ffff1602179055506107d0600360086101000a81548161ffff021916908361ffff1602179055503480156100b757600080fd5b50604051614154380380614154833981810160405260208110156100da57600080fd5b8101908080519060200190929190505050806000806101000a81548173ffffffffffffffffffffffffffffffffffffffff021916908373ffffffffffffffffffffffffffffffffffffffff160217905550506140198061013b6000396000f3fe60806040526004361061020f5760003560e01c80638154fc6111610118578063b2d313cc116100a0578063d8dfeb451161006f578063d8dfeb4514610ab4578063dd49756e14610ae3578063e27f586e14610b1e578063e42c08f214610b35578063ed61eb2214610b9a5761020f565b8063b2d313cc14610994578063cd9110f1146109f9578063cfadd41714610a5e578063d7ced10614610a895761020f565b80638cbfa0d5116100e75780638cbfa0d51461082a57806390f3656c1461088f578063970510e0146108f657806398ea5fca14610925578063a9230bd91461092f5761020f565b80638154fc611461072a578063833b6268146107595780638a973e17146107c05780638c1abe21146107fb5761020f565b806344517cf01161019b578063619fbbe61161016a578063619fbbe6146105da5780636402015414610608578063641ff8b71461066d5780636f1b5d28146106985780637ffdf53e146106ff5761020f565b806344517cf01461047057806350baa622146104d55780635448e8d0146105105780635b7a2dc1146105755761020f565b8063251e3d0f116101e2578063251e3d0f146103255780632664e6451461038a5780632e05e6ca146103a157806331ff84ec146103d05780633bed33ce146104355761020f565b806301d59d7e14610214578063092f57761461027b5780630e7d997b146102b6578063179fc99f146102c0575b600080fd5b34801561022057600080fd5b506102636004803603602081101561023757600080fd5b81019080803573ffffffffffffffffffffffffffffffffffffffff169060200190929190505050610bff565b60405180821515815260200191505060405180910390f35b34801561028757600080fd5b506102b46004803603602081101561029e57600080fd5b8101908080359060200190929190505050610c1f565b005b6102be610f11565b005b3480156102cc57600080fd5b5061030f600480360360208110156102e357600080fd5b81019080803573ffffffffffffffffffffffffffffffffffffffff16906020019092919050505061142f565b6040518082815260200191505060405180910390f35b34801561033157600080fd5b506103746004803603602081101561034857600080fd5b81019080803573ffffffffffffffffffffffffffffffffffffffff169060200190929190505050611447565b6040518082815260200191505060405180910390f35b34801561039657600080fd5b5061039f61145f565b005b3480156103ad57600080fd5b506103b6611707565b604051808261ffff16815260200191505060405180910390f35b3480156103dc57600080fd5b5061041f600480360360208110156103f357600080fd5b81019080803573ffffffffffffffffffffffffffffffffffffffff16906020019092919050505061171b565b6040518082815260200191505060405180910390f35b34801561044157600080fd5b5061046e6004803603602081101561045857600080fd5b8101908080359060200190929190505050611733565b005b34801561047c57600080fd5b506104bf6004803603602081101561049357600080fd5b81019080803573ffffffffffffffffffffffffffffffffffffffff169060200190929190505050611e43565b6040518082815260200191505060405180910390f35b3480156104e157600080fd5b5061050e600480360360208110156104f857600080fd5b8101908080359060200190929190505050611e5b565b005b34801561051c57600080fd5b5061055f6004803603602081101561053357600080fd5b81019080803573ffffffffffffffffffffffffffffffffffffffff16906020019092919050505061249a565b6040518082815260200191505060405180910390f35b34801561058157600080fd5b506105c46004803603602081101561059857600080fd5b81019080803573ffffffffffffffffffffffffffffffffffffffff1690602001909291905050506124b2565b6040518082815260200191505060405180910390f35b610606600480360360208110156105f057600080fd5b81019080803590602001909291905050506124ca565b005b34801561061457600080fd5b506106576004803603602081101561062b57600080fd5b81019080803573ffffffffffffffffffffffffffffffffffffffff1690602001909291905050506128aa565b6040518082815260200191505060405180910390f35b34801561067957600080fd5b506106826128c2565b6040518082815260200191505060405180910390f35b3480156106a457600080fd5b506106e7600480360360208110156106bb57600080fd5b81019080803573ffffffffffffffffffffffffffffffffffffffff1690602001909291905050506128c8565b60405180821515815260200191505060405180910390f35b34801561070b57600080fd5b506107146128e8565b6040518082815260200191505060405180910390f35b34801561073657600080fd5b5061073f6128ee565b604051808261ffff16815260200191505060405180910390f35b34801561076557600080fd5b506107a86004803603602081101561077c57600080fd5b81019080803573ffffffffffffffffffffffffffffffffffffffff169060200190929190505050612902565b60405180821515815260200191505060405180910390f35b3480156107cc57600080fd5b506107f9600480360360208110156107e357600080fd5b8101908080359060200190929190505050612922565b005b34801561080757600080fd5b50610810612ce1565b604051808261ffff16815260200191505060405180910390f35b34801561083657600080fd5b506108796004803603602081101561084d57600080fd5b81019080803573ffffffffffffffffffffffffffffffffffffffff169060200190929190505050612cf5565b6040518082815260200191505060405180910390f35b34801561089b57600080fd5b506108de600480360360208110156108b257600080fd5b81019080803573ffffffffffffffffffffffffffffffffffffffff169060200190929190505050612d0d565b60405180821515815260200191505060405180910390f35b34801561090257600080fd5b5061090b612d2d565b604051808261ffff16815260200191505060405180910390f35b61092d612d41565b005b34801561093b57600080fd5b5061097e6004803603602081101561095257600080fd5b81019080803573ffffffffffffffffffffffffffffffffffffffff169060200190929190505050612fad565b6040518082815260200191505060405180910390f35b3480156109a057600080fd5b506109e3600480360360208110156109b757600080fd5b81019080803573ffffffffffffffffffffffffffffffffffffffff169060200190929190505050612fc5565b6040518082815260200191505060405180910390f35b348015610a0557600080fd5b50610a4860048036036020811015610a1c57600080fd5b81019080803573ffffffffffffffffffffffffffffffffffffffff169060200190929190505050612fdd565b6040518082815260200191505060405180910390f35b348015610a6a57600080fd5b50610a73612ff5565b6040518082815260200191505060405180910390f35b348015610a9557600080fd5b50610a9e612ffb565b6040518082815260200191505060405180910390f35b348015610ac057600080fd5b50610ac9613001565b604051808261ffff16815260200191505060405180910390f35b348015610aef57600080fd5b50610b1c60048036036020811015610b0657600080fd5b8101908080359060200190929190505050613015565b005b348015610b2a57600080fd5b50610b336133da565b005b348015610b4157600080fd5b50610b8460048036036020811015610b5857600080fd5b81019080803573ffffffffffffffffffffffffffffffffffffffff169060200190929190505050613721565b6040518082815260200191505060405180910390f35b348015610ba657600080fd5b50610be960048036036020811015610bbd57600080fd5b81019080803573ffffffffffffffffffffffffffffffffffffffff169060200190929190505050613739565b6040518082815260200191505060405180910390f35b600e6020528060005260406000206000915054906101000a900460ff1681565b80606402600860003373ffffffffffffffffffffffffffffffffffffffff1673ffffffffffffffffffffffffffffffffffffffff16815260200190815260200160002054600360009054906101000a900461ffff1661ffff16021015610ced576040517f08c379a00000000000000000000000000000000000000000000000000000000081526004018080602001828103825260118152602001807f42616c616e636520746f6f20736d616c6c00000000000000000000000000000081525060200191505060405180910390fd5b610cf73382613751565b600e60003373ffffffffffffffffffffffffffffffffffffffff1673ffffffffffffffffffffffffffffffffffffffff16815260200190815260200160002060009054906101000a900460ff1615610d5757610d52336139cb565b610df4565b6001600e60003373ffffffffffffffffffffffffffffffffffffffff1673ffffffffffffffffffffffffffffffffffffffff16815260200190815260200160002060006101000a81548160ff02191690831515021790555042601260003373ffffffffffffffffffffffffffffffffffffffff1673ffffffffffffffffffffffffffffffffffffffff168152602001908152602001600020819055505b600360009054906101000a900461ffff1661ffff16816127100281610e1557fe5b04600860003373ffffffffffffffffffffffffffffffffffffffff1673ffffffffffffffffffffffffffffffffffffffff1681526020019081526020016000206000828254039250508190555080601060003373ffffffffffffffffffffffffffffffffffffffff1673ffffffffffffffffffffffffffffffffffffffff168152602001908152602001600020600082825401925050819055503373ffffffffffffffffffffffffffffffffffffffff167f13ed6866d4e1ee6da46f845c46d7e54120883d75c5ea9a2dacc1c4ca8984ab808260004260405180848152602001838152602001828152602001935050505060405180910390a250565b600d60003373ffffffffffffffffffffffffffffffffffffffff1673ffffffffffffffffffffffffffffffffffffffff16815260200190815260200160002060009054906101000a900460ff16610fd0576040517f08c379a000000000000000000000000000000000000000000000000000000000815260040180806020018281038252600e8152602001807f4e6f20616374697665206c6f616e00000000000000000000000000000000000081525060200191505060405180910390fd5b610fd933613b12565b601360003373ffffffffffffffffffffffffffffffffffffffff1673ffffffffffffffffffffffffffffffffffffffff16815260200190815260200160002054341015611071576040517f08c379a0000000000000000000000000000000000000000000000000000000008152600401808060200182810382526026815260200180613f956026913960400191505060405180910390fd5b6000601360003373ffffffffffffffffffffffffffffffffffffffff1673ffffffffffffffffffffffffffffffffffffffff1681526020019081526020016000205434039050600f60003373ffffffffffffffffffffffffffffffffffffffff1673ffffffffffffffffffffffffffffffffffffffff168152602001908152602001600020548111156111c9573373ffffffffffffffffffffffffffffffffffffffff166108fc600f60003373ffffffffffffffffffffffffffffffffffffffff1673ffffffffffffffffffffffffffffffffffffffff1681526020019081526020016000205483039081150290604051600060405180830381858888f19350505050158015611185573d6000803e3d6000fd5b50600f60003373ffffffffffffffffffffffffffffffffffffffff1673ffffffffffffffffffffffffffffffffffffffff1681526020019081526020016000205490505b6000601360003373ffffffffffffffffffffffffffffffffffffffff1673ffffffffffffffffffffffffffffffffffffffff1681526020019081526020016000208190555080600f60003373ffffffffffffffffffffffffffffffffffffffff1673ffffffffffffffffffffffffffffffffffffffff16815260200190815260200160002060008282540392505081905550600360009054906101000a900461ffff1661ffff166127106001548302028161128057fe5b04600860003373ffffffffffffffffffffffffffffffffffffffff1673ffffffffffffffffffffffffffffffffffffffff16815260200190815260200160002060008282540192505081905550346015600082825401925050819055506000600f60003373ffffffffffffffffffffffffffffffffffffffff1673ffffffffffffffffffffffffffffffffffffffff1681526020019081526020016000205414156113c3576000600d60003373ffffffffffffffffffffffffffffffffffffffff1673ffffffffffffffffffffffffffffffffffffffff16815260200190815260200160002060006101000a81548160ff0219169083151502179055506000601160003373ffffffffffffffffffffffffffffffffffffffff1673ffffffffffffffffffffffffffffffffffffffff168152602001908152602001600020819055505b3373ffffffffffffffffffffffffffffffffffffffff167f8e72efe4ca25bb2016cccb03d357f073365012af9ca1c4e6937880ea25d1dd4a826000843403426040518085815260200184815260200183815260200182815260200194505050505060405180910390a250565b60066020528060005260406000206000915090505481565b60096020528060005260406000206000915090505481565b600560003373ffffffffffffffffffffffffffffffffffffffff1673ffffffffffffffffffffffffffffffffffffffff16815260200190815260200160002060009054906101000a900460ff1661151e576040517f08c379a000000000000000000000000000000000000000000000000000000000815260040180806020018281038252601d8152602001807f446964206e6f74206d616b6520616e79206465706f736974732079657400000081525060200191505060405180910390fd5b61152733613c5d565b6000600c60003373ffffffffffffffffffffffffffffffffffffffff1673ffffffffffffffffffffffffffffffffffffffff16815260200190815260200160002054116115dc576040517f08c379a000000000000000000000000000000000000000000000000000000000815260040180806020018281038252601c8152602001807f446f206e6f74206861766520616e7920696e746572657374207965740000000081525060200191505060405180910390fd5b61162533600b60003373ffffffffffffffffffffffffffffffffffffffff1673ffffffffffffffffffffffffffffffffffffffff16815260200190815260200160002054613751565b6000600b60003373ffffffffffffffffffffffffffffffffffffffff1673ffffffffffffffffffffffffffffffffffffffff1681526020019081526020016000205490506000600b60003373ffffffffffffffffffffffffffffffffffffffff1673ffffffffffffffffffffffffffffffffffffffff168152602001908152602001600020819055503373ffffffffffffffffffffffffffffffffffffffff167f71bab65ced2e5750775a0613be067df48ef06cf92a496ebf7663ae06609249548242604051808381526020018281526020019250505060405180910390a250565b600360089054906101000a900461ffff1681565b600b6020528060005260406000206000915090505481565b600460003373ffffffffffffffffffffffffffffffffffffffff1673ffffffffffffffffffffffffffffffffffffffff16815260200190815260200160002060009054906101000a900460ff166117f2576040517f08c379a000000000000000000000000000000000000000000000000000000000815260040180806020018281038252601d8152602001807f446964206e6f74206d616b6520616e79206465706f736974732079657400000081525060200191505060405180910390fd5b80600660003373ffffffffffffffffffffffffffffffffffffffff1673ffffffffffffffffffffffffffffffffffffffff16815260200190815260200160002054101561188a576040517f08c379a0000000000000000000000000000000000000000000000000000000008152600401808060200182810382526029815260200180613ef06029913960400191505060405180910390fd5b6001548102600860003373ffffffffffffffffffffffffffffffffffffffff1673ffffffffffffffffffffffffffffffffffffffff168152602001908152602001600020541015611926576040517f08c379a0000000000000000000000000000000000000000000000000000000008152600401808060200182810382526033815260200180613f196033913960400191505060405180910390fd5b80601554101561199e576040517f08c379a000000000000000000000000000000000000000000000000000000000815260040180806020018281038252601a8152602001807f4e6f7420656e6f7567682066756e647320617661696c61626c6500000000000081525060200191505060405180910390fd5b80600660003373ffffffffffffffffffffffffffffffffffffffff1673ffffffffffffffffffffffffffffffffffffffff168152602001908152602001600020541480611a335750662386f26fc1000081600660003373ffffffffffffffffffffffffffffffffffffffff1673ffffffffffffffffffffffffffffffffffffffff168152602001908152602001600020540310155b611a88576040517f08c379a0000000000000000000000000000000000000000000000000000000008152600401808060200182810382526022815260200180613f736022913960400191505060405180910390fd5b611a9133613da4565b3373ffffffffffffffffffffffffffffffffffffffff166108fc829081150290604051600060405180830381858888f19350505050158015611ad7573d6000803e3d6000fd5b508060156000828254039250508190555080600860003373ffffffffffffffffffffffffffffffffffffffff1673ffffffffffffffffffffffffffffffffffffffff1681526020019081526020016000206000828254039250508190555080600660003373ffffffffffffffffffffffffffffffffffffffff1673ffffffffffffffffffffffffffffffffffffffff16815260200190815260200160002060008282540392505081905550600080600660003373ffffffffffffffffffffffffffffffffffffffff1673ffffffffffffffffffffffffffffffffffffffff168152602001908152602001600020541415611dd8576000600460003373ffffffffffffffffffffffffffffffffffffffff1673ffffffffffffffffffffffffffffffffffffffff16815260200190815260200160002060006101000a81548160ff0219169083151502179055506000600960003373ffffffffffffffffffffffffffffffffffffffff1673ffffffffffffffffffffffffffffffffffffffff1681526020019081526020016000208190555060008054906101000a900473ffffffffffffffffffffffffffffffffffffffff1673ffffffffffffffffffffffffffffffffffffffff166340c10f1933600b60003373ffffffffffffffffffffffffffffffffffffffff1673ffffffffffffffffffffffffffffffffffffffff168152602001908152602001600020546040518363ffffffff1660e01b8152600401808373ffffffffffffffffffffffffffffffffffffffff16815260200182815260200192505050600060405180830381600087803b158015611d3857600080fd5b505af1158015611d4c573d6000803e3d6000fd5b50505050600b60003373ffffffffffffffffffffffffffffffffffffffff1673ffffffffffffffffffffffffffffffffffffffff1681526020019081526020016000205490506000600b60003373ffffffffffffffffffffffffffffffffffffffff1673ffffffffffffffffffffffffffffffffffffffff168152602001908152602001600020819055505b3373ffffffffffffffffffffffffffffffffffffffff167fe08737ac48a1dab4b1a46c7dc9398bd5bfc6d7ad6fabb7cd8caa254de14def3583600084426040518085815260200184815260200183815260200182815260200194505050505060405180910390a25050565b60106020528060005260406000206000915090505481565b600560003373ffffffffffffffffffffffffffffffffffffffff1673ffffffffffffffffffffffffffffffffffffffff16815260200190815260200160002060009054906101000a900460ff16611f1a576040517f08c379a000000000000000000000000000000000000000000000000000000000815260040180806020018281038252601d8152602001807f446964206e6f74206d616b6520616e79206465706f736974732079657400000081525060200191505060405180910390fd5b80600760003373ffffffffffffffffffffffffffffffffffffffff1673ffffffffffffffffffffffffffffffffffffffff168152602001908152602001600020541015611fb2576040517f08c379a0000000000000000000000000000000000000000000000000000000008152600401808060200182810382526029815260200180613ef06029913960400191505060405180910390fd5b80600860003373ffffffffffffffffffffffffffffffffffffffff1673ffffffffffffffffffffffffffffffffffffffff16815260200190815260200160002054101561204a576040517f08c379a0000000000000000000000000000000000000000000000000000000008152600401808060200182810382526033815260200180613f196033913960400191505060405180910390fd5b80600760003373ffffffffffffffffffffffffffffffffffffffff1673ffffffffffffffffffffffffffffffffffffffff1681526020019081526020016000205414806120df5750662386f26fc1000081600660003373ffffffffffffffffffffffffffffffffffffffff1673ffffffffffffffffffffffffffffffffffffffff168152602001908152602001600020540310155b612134576040517f08c379a0000000000000000000000000000000000000000000000000000000008152600401808060200182810382526022815260200180613f736022913960400191505060405180910390fd5b61213d33613c5d565b60008054906101000a900473ffffffffffffffffffffffffffffffffffffffff1673ffffffffffffffffffffffffffffffffffffffff1663a9059cbb336016546040518363ffffffff1660e01b8152600401808373ffffffffffffffffffffffffffffffffffffffff16815260200182815260200192505050602060405180830381600087803b1580156121d057600080fd5b505af11580156121e4573d6000803e3d6000fd5b505050506040513d60208110156121fa57600080fd5b8101908080519060200190929190505050508060166000828254039250508190555080600760003373ffffffffffffffffffffffffffffffffffffffff1673ffffffffffffffffffffffffffffffffffffffff1681526020019081526020016000206000828254039250508190555080600860003373ffffffffffffffffffffffffffffffffffffffff1673ffffffffffffffffffffffffffffffffffffffff16815260200190815260200160002060008282540392505081905550600080600760003373ffffffffffffffffffffffffffffffffffffffff1673ffffffffffffffffffffffffffffffffffffffff16815260200190815260200160002054141561242f576000600560003373ffffffffffffffffffffffffffffffffffffffff1673ffffffffffffffffffffffffffffffffffffffff16815260200190815260200160002060006101000a81548160ff0219169083151502179055506000600a60003373ffffffffffffffffffffffffffffffffffffffff1673ffffffffffffffffffffffffffffffffffffffff168152602001908152602001600020819055506123e533600c60003373ffffffffffffffffffffffffffffffffffffffff1673ffffffffffffffffffffffffffffffffffffffff16815260200190815260200160002054613751565b600090506000600c60003373ffffffffffffffffffffffffffffffffffffffff1673ffffffffffffffffffffffffffffffffffffffff168152602001908152602001600020819055505b3373ffffffffffffffffffffffffffffffffffffffff167fe08737ac48a1dab4b1a46c7dc9398bd5bfc6d7ad6fabb7cd8caa254de14def3560008484426040518085815260200184815260200183815260200182815260200194505050505060405180910390a25050565b600c6020528060005260406000206000915090505481565b60126020528060005260406000206000915090505481565b600e60003373ffffffffffffffffffffffffffffffffffffffff1673ffffffffffffffffffffffffffffffffffffffff16815260200190815260200160002060009054906101000a900460ff16612589576040517f08c379a000000000000000000000000000000000000000000000000000000000815260040180806020018281038252600e8152602001807f4e6f20616374697665206c6f616e00000000000000000000000000000000000081525060200191505060405180910390fd5b612592336139cb565b601360003373ffffffffffffffffffffffffffffffffffffffff1673ffffffffffffffffffffffffffffffffffffffff1681526020019081526020016000205434101561262a576040517f08c379a0000000000000000000000000000000000000000000000000000000008152600401808060200182810382526026815260200180613f956026913960400191505060405180910390fd5b6000601360003373ffffffffffffffffffffffffffffffffffffffff1673ffffffffffffffffffffffffffffffffffffffff168152602001908152602001600020549050803411156126c0573373ffffffffffffffffffffffffffffffffffffffff166108fc8234039081150290604051600060405180830381858888f193505050501580156126be573d6000803e3d6000fd5b505b6000601360003373ffffffffffffffffffffffffffffffffffffffff1673ffffffffffffffffffffffffffffffffffffffff1681526020019081526020016000208190555081601060003373ffffffffffffffffffffffffffffffffffffffff1673ffffffffffffffffffffffffffffffffffffffff16815260200190815260200160002060008282540392505081905550600360009054906101000a900461ffff1661ffff1682612710028161277357fe5b04600860003373ffffffffffffffffffffffffffffffffffffffff1673ffffffffffffffffffffffffffffffffffffffff168152602001908152602001600020600082825401925050819055506000601060003373ffffffffffffffffffffffffffffffffffffffff1673ffffffffffffffffffffffffffffffffffffffff1681526020019081526020016000205414156128a6576000600e60003373ffffffffffffffffffffffffffffffffffffffff1673ffffffffffffffffffffffffffffffffffffffff16815260200190815260200160002060006101000a81548160ff0219169083151502179055506000601260003373ffffffffffffffffffffffffffffffffffffffff1673ffffffffffffffffffffffffffffffffffffffff168152602001908152602001600020819055505b5050565b60136020528060005260406000206000915090505481565b60155481565b60056020528060005260406000206000915054906101000a900460ff1681565b60015481565b600360029054906101000a900461ffff1681565b600d6020528060005260406000206000915054906101000a900460ff1681565b80606402600154600860003373ffffffffffffffffffffffffffffffffffffffff1673ffffffffffffffffffffffffffffffffffffffff16815260200190815260200160002054600360009054906101000a900461ffff1661ffff16020210156129f4576040517f08c379a00000000000000000000000000000000000000000000000000000000081526004018080602001828103825260118152602001807f42616c616e636520746f6f20736d616c6c00000000000000000000000000000081525060200191505060405180910390fd5b806015541015612a6c576040517f08c379a00000000000000000000000000000000000000000000000000000000081526004018080602001828103825260118152602001807f4e6f7420656e6f75676820666f756e647300000000000000000000000000000081525060200191505060405180910390fd5b3373ffffffffffffffffffffffffffffffffffffffff166108fc829081150290604051600060405180830381858888f19350505050158015612ab2573d6000803e3d6000fd5b50600d60003373ffffffffffffffffffffffffffffffffffffffff1673ffffffffffffffffffffffffffffffffffffffff16815260200190815260200160002060009054906101000a900460ff1615612b1357612b0e33613b12565b612bb0565b6001600d60003373ffffffffffffffffffffffffffffffffffffffff1673ffffffffffffffffffffffffffffffffffffffff16815260200190815260200160002060006101000a81548160ff02191690831515021790555042601160003373ffffffffffffffffffffffffffffffffffffffff1673ffffffffffffffffffffffffffffffffffffffff168152602001908152602001600020819055505b600360009054906101000a900461ffff1661ffff1661271060015483020281612bd557fe5b04600860003373ffffffffffffffffffffffffffffffffffffffff1673ffffffffffffffffffffffffffffffffffffffff1681526020019081526020016000206000828254039250508190555080600f60003373ffffffffffffffffffffffffffffffffffffffff1673ffffffffffffffffffffffffffffffffffffffff16815260200190815260200160002060008282540392505081905550806015600082825403925050819055503373ffffffffffffffffffffffffffffffffffffffff167f13ed6866d4e1ee6da46f845c46d7e54120883d75c5ea9a2dacc1c4ca8984ab808260004260405180848152602001838152602001828152602001935050505060405180910390a250565b600360069054906101000a900461ffff1681565b600a6020528060005260406000206000915090505481565b60046020528060005260406000206000915054906101000a900460ff1681565b600360049054906101000a900461ffff1681565b662386f26fc10000341015612da1576040517f08c379a0000000000000000000000000000000000000000000000000000000008152600401808060200182810382526027815260200180613f4c6027913960400191505060405180910390fd5b600460003373ffffffffffffffffffffffffffffffffffffffff1673ffffffffffffffffffffffffffffffffffffffff16815260200190815260200160002060009054906101000a900460ff1615612e0157612dfc33613da4565b612e9e565b6001600460003373ffffffffffffffffffffffffffffffffffffffff1673ffffffffffffffffffffffffffffffffffffffff16815260200190815260200160002060006101000a81548160ff02191690831515021790555042600960003373ffffffffffffffffffffffffffffffffffffffff1673ffffffffffffffffffffffffffffffffffffffff168152602001908152602001600020819055505b34600660003373ffffffffffffffffffffffffffffffffffffffff1673ffffffffffffffffffffffffffffffffffffffff168152602001908152602001600020600082825401925050819055506001543402600860003373ffffffffffffffffffffffffffffffffffffffff1673ffffffffffffffffffffffffffffffffffffffff16815260200190815260200160002060008282540192505081905550346015600082825401925050819055503373ffffffffffffffffffffffffffffffffffffffff167f36af321ec8d3c75236829c5317affd40ddb308863a1236d2d277a4025cccee1e3460004260405180848152602001838152602001828152602001935050505060405180910390a2565b60116020528060005260406000206000915090505481565b60146020528060005260406000206000915090505481565b600f6020528060005260406000206000915090505481565b60165481565b60025481565b600360009054906101000a900461ffff1681565b662386f26fc10000811015613075576040517f08c379a0000000000000000000000000000000000000000000000000000000008152600401808060200182810382526029815260200180613fbb6029913960400191505060405180910390fd5b60008054906101000a900473ffffffffffffffffffffffffffffffffffffffff1673ffffffffffffffffffffffffffffffffffffffff166323b872dd3330846040518463ffffffff1660e01b8152600401808473ffffffffffffffffffffffffffffffffffffffff1681526020018373ffffffffffffffffffffffffffffffffffffffff1681526020018281526020019350505050602060405180830381600087803b15801561312457600080fd5b505af1158015613138573d6000803e3d6000fd5b505050506040513d602081101561314e57600080fd5b81019080805190602001909291905050506131d1576040517f08c379a000000000000000000000000000000000000000000000000000000000815260040180806020018281038252600f8152602001807f5472616e73666572206661696c6564000000000000000000000000000000000081525060200191505060405180910390fd5b600560003373ffffffffffffffffffffffffffffffffffffffff1673ffffffffffffffffffffffffffffffffffffffff16815260200190815260200160002060009054906101000a900460ff16156132315761322c33613c5d565b6132ce565b6001600560003373ffffffffffffffffffffffffffffffffffffffff1673ffffffffffffffffffffffffffffffffffffffff16815260200190815260200160002060006101000a81548160ff02191690831515021790555042600a60003373ffffffffffffffffffffffffffffffffffffffff1673ffffffffffffffffffffffffffffffffffffffff168152602001908152602001600020819055505b80600760003373ffffffffffffffffffffffffffffffffffffffff1673ffffffffffffffffffffffffffffffffffffffff1681526020019081526020016000206000828254019250508190555080600860003373ffffffffffffffffffffffffffffffffffffffff1673ffffffffffffffffffffffffffffffffffffffff16815260200190815260200160002060008282540192505081905550806016600082825401925050819055503373ffffffffffffffffffffffffffffffffffffffff167f36af321ec8d3c75236829c5317affd40ddb308863a1236d2d277a4025cccee1e6000834260405180848152602001838152602001828152602001935050505060405180910390a250565b600460003373ffffffffffffffffffffffffffffffffffffffff1673ffffffffffffffffffffffffffffffffffffffff16815260200190815260200160002060009054906101000a900460ff16613499576040517f08c379a000000000000000000000000000000000000000000000000000000000815260040180806020018281038252601d8152602001807f446964206e6f74206d616b6520616e79206465706f736974732079657400000081525060200191505060405180910390fd5b6134a233613da4565b6000600b60003373ffffffffffffffffffffffffffffffffffffffff1673ffffffffffffffffffffffffffffffffffffffff1681526020019081526020016000205411613557576040517f08c379a000000000000000000000000000000000000000000000000000000000815260040180806020018281038252601c8152602001807f446f206e6f74206861766520616e7920696e746572657374207965740000000081525060200191505060405180910390fd5b60008054906101000a900473ffffffffffffffffffffffffffffffffffffffff1673ffffffffffffffffffffffffffffffffffffffff166340c10f1933600b60003373ffffffffffffffffffffffffffffffffffffffff1673ffffffffffffffffffffffffffffffffffffffff168152602001908152602001600020546040518363ffffffff1660e01b8152600401808373ffffffffffffffffffffffffffffffffffffffff16815260200182815260200192505050600060405180830381600087803b15801561362757600080fd5b505af115801561363b573d6000803e3d6000fd5b505050506000600b60003373ffffffffffffffffffffffffffffffffffffffff1673ffffffffffffffffffffffffffffffffffffffff1681526020019081526020016000205490506000600b60003373ffffffffffffffffffffffffffffffffffffffff1673ffffffffffffffffffffffffffffffffffffffff168152602001908152602001600020819055503373ffffffffffffffffffffffffffffffffffffffff167f71bab65ced2e5750775a0613be067df48ef06cf92a496ebf7663ae06609249548242604051808381526020018281526020019250505060405180910390a250565b60076020528060005260406000206000915090505481565b60086020528060005260406000206000915090505481565b806016541161383c5760008054906101000a900473ffffffffffffffffffffffffffffffffffffffff1673ffffffffffffffffffffffffffffffffffffffff1663a9059cbb83836040518363ffffffff1660e01b8152600401808373ffffffffffffffffffffffffffffffffffffffff16815260200182815260200192505050602060405180830381600087803b1580156137eb57600080fd5b505af11580156137ff573d6000803e3d6000fd5b505050506040513d602081101561381557600080fd5b810190808051906020019092919050505050806016600082825403925050819055506139c7565b60006016548203905060008054906101000a900473ffffffffffffffffffffffffffffffffffffffff1673ffffffffffffffffffffffffffffffffffffffff1663a9059cbb846016546040518363ffffffff1660e01b8152600401808373ffffffffffffffffffffffffffffffffffffffff16815260200182815260200192505050602060405180830381600087803b1580156138d857600080fd5b505af11580156138ec573d6000803e3d6000fd5b505050506040513d602081101561390257600080fd5b81019080805190602001909291905050505060008054906101000a900473ffffffffffffffffffffffffffffffffffffffff1673ffffffffffffffffffffffffffffffffffffffff166340c10f1933836040518363ffffffff1660e01b8152600401808373ffffffffffffffffffffffffffffffffffffffff16815260200182815260200192505050600060405180830381600087803b1580156139a557600080fd5b505af11580156139b9573d6000803e3d6000fd5b505050506000601681905550505b5050565b6000600960008373ffffffffffffffffffffffffffffffffffffffff1673ffffffffffffffffffffffffffffffffffffffff1681526020019081526020016000205442039050600060025461271002600360089054906101000a900461ffff1661ffff16601060008673ffffffffffffffffffffffffffffffffffffffff1673ffffffffffffffffffffffffffffffffffffffff1681526020019081526020016000205484020281613a7957fe5b04905080601460008573ffffffffffffffffffffffffffffffffffffffff1673ffffffffffffffffffffffffffffffffffffffff1681526020019081526020016000206000828254019250508190555042601260008573ffffffffffffffffffffffffffffffffffffffff1673ffffffffffffffffffffffffffffffffffffffff16815260200190815260200160002081905550505050565b6000600960008373ffffffffffffffffffffffffffffffffffffffff1673ffffffffffffffffffffffffffffffffffffffff1681526020019081526020016000205442039050600060015460025461271002600360069054906101000a900461ffff1661ffff16600f60008773ffffffffffffffffffffffffffffffffffffffff1673ffffffffffffffffffffffffffffffffffffffff1681526020019081526020016000205485020281613bc357fe5b0402905080601360008573ffffffffffffffffffffffffffffffffffffffff1673ffffffffffffffffffffffffffffffffffffffff1681526020019081526020016000206000828254019250508190555042601160003373ffffffffffffffffffffffffffffffffffffffff1673ffffffffffffffffffffffffffffffffffffffff16815260200190815260200160002081905550505050565b6000600960008373ffffffffffffffffffffffffffffffffffffffff1673ffffffffffffffffffffffffffffffffffffffff1681526020019081526020016000205442039050600060025461271002600360049054906101000a900461ffff1661ffff16600760008673ffffffffffffffffffffffffffffffffffffffff1673ffffffffffffffffffffffffffffffffffffffff1681526020019081526020016000205484020281613d0b57fe5b04905080600c60008573ffffffffffffffffffffffffffffffffffffffff1673ffffffffffffffffffffffffffffffffffffffff1681526020019081526020016000206000828254019250508190555042600a60008573ffffffffffffffffffffffffffffffffffffffff1673ffffffffffffffffffffffffffffffffffffffff16815260200190815260200160002081905550505050565b6000600960008373ffffffffffffffffffffffffffffffffffffffff1673ffffffffffffffffffffffffffffffffffffffff1681526020019081526020016000205442039050600060015460025461271002600360029054906101000a900461ffff1661ffff16600660008773ffffffffffffffffffffffffffffffffffffffff1673ffffffffffffffffffffffffffffffffffffffff1681526020019081526020016000205485020281613e5557fe5b0402905080600b60008573ffffffffffffffffffffffffffffffffffffffff1673ffffffffffffffffffffffffffffffffffffffff1681526020019081526020016000206000828254019250508190555042600960003373ffffffffffffffffffffffffffffffffffffffff1673ffffffffffffffffffffffffffffffffffffffff1681526020019081526020016000208190555050505056fe576974686472617720616d6f756e742069732062696767657220746865207468652062616c616e6365576974686472617720616d6f756e7420697320626967676572207468652074686520617661696c61626c652062616c616e63655468652076616c7565206d7573742062652067726561746572207468656e20302e3031204554485468652072656d61696e696e672062616c616e636520697320746f6f20736d616c6c54686520616d6f756e7420646f6573206e6f7420636f7665722074686520696e7465726573745468652076616c7565206d7573742062652067726561746572207468656e20302e303120746f6b656ea2646970667358221220346eba7c6bc95bccec38e42cafae5a2d72c69b40309d1025c51bc0885fff3c9164736f6c63430007060033",
  "immutableReferences": {},
  "source": "// SPDX-License-Identifier: MIT\r\npragma solidity >=0.6.0 <0.8.0;\r\n\r\nimport \"./Token.sol\";\r\n\r\ncontract dBank {\r\n\r\n\tToken private tokenContract;\r\n\tuint public conversionRate = 1;  // tokens for 1 ether\r\n    uint public secoundsInYear = 31557600;  // sec in 365.25 days\r\n\tuint16 public collateral = 8000;  // 80%\r\n\tuint16 public etherAPY = 1000;  // 10%\r\n\tuint16 public tokenAPY = 1500;  // 15%\r\n\tuint16 public etherAPR = 2000;  // 20%\r\n\tuint16 public tokenAPR = 2000;  // 20%\r\n\r\n    mapping(address => bool) public hasDepositedEther;\r\n    mapping(address => bool) public hasDepositedToken;\r\n    mapping(address => uint) public etherBalanceOf;\r\n    mapping(address => uint) public tokenBalanceOf;\r\n\tmapping(address => uint) public availableValueOf;\r\n\r\n    mapping(address => uint) public depositEtherStart;\r\n    mapping(address => uint) public depositTokenStart;\r\n\tmapping(address => uint) public unpayedInterestForEther;\r\n\tmapping(address => uint) public unpayedInterestForToken;\r\n\r\n\tmapping(address => bool) public hasBorrowedEther;\r\n\tmapping(address => bool) public hasBorrowedToken;\r\n\tmapping(address => uint) public etherBorrowedBy;\r\n\tmapping(address => uint) public tokenBorrowedBy;\r\n\r\n\tmapping(address => uint) public loanEtherStart;\r\n\tmapping(address => uint) public loanTokenStart;\r\n\tmapping(address => uint) public dueInterestForEther;\r\n\tmapping(address => uint) public dueInterestForToken;\r\n\r\n\tuint public totalEtherDeposited;\r\n\tuint public totalTokenDeposited;\r\n\r\n    event Deposit(address indexed user, uint amountEther, uint amountToken, uint time);\r\n\tevent Harvest(address indexed user, uint interest, uint time);\r\n    event Withdraw(address indexed user, uint amountEther, uint amountToken, uint interest, uint time);\r\n    event Borrow(address indexed user, uint amountEther, uint amountToken, uint time);\r\n    event PayOff(address indexed user, uint amountEther, uint amountToken, uint interest, uint time);\r\n\r\n\tconstructor(Token _tokenContract) {\r\n        tokenContract = _tokenContract;\r\n    }\r\n\r\n\tfunction calculateInterestForEtherDeposited(address _account) internal {\r\n\t\tuint time = block.timestamp - depositEtherStart[_account];\r\n\t\tuint interest = time * etherBalanceOf[_account] * etherAPY / (10000 * secoundsInYear) * conversionRate;\r\n\t\tunpayedInterestForEther[_account] += interest;\r\n\t\tdepositEtherStart[msg.sender] = block.timestamp;\r\n\t}\r\n\r\n\tfunction calculateInterestForTokenDeposited(address _account) internal {\r\n\t\tuint time = block.timestamp - depositEtherStart[_account];\r\n\t\tuint interest = time * tokenBalanceOf[_account] * tokenAPY / (10000 * secoundsInYear);\r\n\t\tunpayedInterestForToken[_account] += interest;\r\n\t\tdepositTokenStart[_account] = block.timestamp;\r\n\t}\r\n\r\n\tfunction calculateInterestForEtherBorrowed(address _account) internal {\r\n\t\tuint time = block.timestamp - depositEtherStart[_account];\r\n\t\tuint interest = time * etherBorrowedBy[_account] * etherAPR / (10000 * secoundsInYear) * conversionRate;\r\n\t\tdueInterestForEther[_account] += interest;\r\n\t\tloanEtherStart[msg.sender] = block.timestamp;\r\n\t}\r\n\r\n\tfunction calculateInterestForTokenBorrowed(address _account) internal {\r\n\t\tuint time = block.timestamp - depositEtherStart[_account];\r\n\t\tuint interest = time * tokenBorrowedBy[_account] * tokenAPR / (10000 * secoundsInYear);\r\n\t\tdueInterestForToken[_account] += interest;\r\n\t\tloanTokenStart[_account] = block.timestamp;\r\n\t}\r\n\r\n\tfunction payTokenTo(address _account, uint _amount) internal {\r\n\t\tif (totalTokenDeposited <= _amount) {\r\n\t\t\ttokenContract.transfer(_account, _amount);\r\n\t\t\ttotalTokenDeposited -= _amount;\r\n\t\t} else {\r\n\t\t\tuint diffrence = _amount - totalTokenDeposited;\r\n\t\t\ttokenContract.transfer(_account, totalTokenDeposited);\r\n\t\t\ttokenContract.mint(msg.sender, diffrence);\r\n\t\t\ttotalTokenDeposited = 0;\r\n\t\t}\r\n\t}\r\n\r\n\tfunction depositEther() payable public {\r\n\t\trequire(msg.value >= 10 ** 16, \"The value must be greater then 0.01 ETH\");\r\n\r\n\t\tif (hasDepositedEther[msg.sender]) {\r\n\t\t\tcalculateInterestForEtherDeposited(msg.sender);\r\n\t\t} else  {\r\n\t\t\thasDepositedEther[msg.sender] = true;\r\n\t\t\tdepositEtherStart[msg.sender] = block.timestamp;\r\n\t\t}\r\n\t\tetherBalanceOf[msg.sender] += msg.value;\r\n\t\tavailableValueOf[msg.sender] += msg.value * conversionRate;\r\n\t\t\r\n\t\ttotalEtherDeposited += msg.value;\r\n\r\n        emit Deposit(msg.sender, msg.value, 0, block.timestamp);\r\n\t}\r\n\r\n\tfunction depositTokens(uint _amount) public {\r\n\t\trequire(_amount>= 10 ** 16, \"The value must be greater then 0.01 token\");\r\n\t\trequire(tokenContract.transferFrom(msg.sender, address(this), _amount), \"Transfer failed\");\r\n\r\n\t\tif (hasDepositedToken[msg.sender]) {\r\n\t\t\tcalculateInterestForTokenDeposited(msg.sender);\r\n\t\t} else  {\r\n\t\t\thasDepositedToken[msg.sender] = true;\r\n\t\t\tdepositTokenStart[msg.sender] = block.timestamp;\r\n\t\t}\r\n\t\ttokenBalanceOf[msg.sender] += _amount;\r\n\t\tavailableValueOf[msg.sender] += _amount;\r\n\r\n\t\ttotalTokenDeposited += _amount;\r\n\r\n        emit Deposit(msg.sender, 0, _amount, block.timestamp);\r\n\t}\r\n\r\n\tfunction harvestInterestForEtherDeposited() public {\r\n\t\trequire(hasDepositedEther[msg.sender], \"Did not make any deposits yet\");\r\n\t\t\r\n\t\tcalculateInterestForEtherDeposited(msg.sender);\r\n\t\trequire(unpayedInterestForEther[msg.sender] > 0, \"Do not have any interest yet\");\r\n\t\t\r\n\t\ttokenContract.mint(msg.sender, unpayedInterestForEther[msg.sender]);\r\n\t\tuint interest = unpayedInterestForEther[msg.sender];\r\n\t\tunpayedInterestForEther[msg.sender] = 0;\r\n\r\n\t\temit Harvest(msg.sender, interest, block.timestamp);\r\n\t}\r\n\r\n\tfunction harvestInterestForTokenDeposited() public {\r\n\t\trequire(hasDepositedToken[msg.sender], \"Did not make any deposits yet\");\r\n\t\t\r\n\t\tcalculateInterestForTokenDeposited(msg.sender);\r\n\t\trequire(unpayedInterestForToken[msg.sender] > 0, \"Do not have any interest yet\");\r\n\t\t\r\n\t\tpayTokenTo(msg.sender, unpayedInterestForEther[msg.sender]);\r\n\t\tuint interest = unpayedInterestForEther[msg.sender];\r\n\t\tunpayedInterestForEther[msg.sender] = 0;\r\n\t\t\r\n\t\temit Harvest(msg.sender, interest, block.timestamp);\r\n\t}\r\n\r\n\tfunction withdrawEther(uint _amount) public {\r\n\t\trequire(hasDepositedEther[msg.sender], \"Did not make any deposits yet\");\r\n\t\trequire(etherBalanceOf[msg.sender] >= _amount, \"Withdraw amount is bigger the the balance\");\r\n\t\trequire(availableValueOf[msg.sender] >= _amount * conversionRate,\r\n\t\t\t\"Withdraw amount is bigger the the available balance\");\r\n\t\trequire(totalEtherDeposited >= _amount, \"Not enough funds available\");\r\n\t\trequire(etherBalanceOf[msg.sender] ==_amount || etherBalanceOf[msg.sender] - _amount >= 1e16,\r\n\t\t\t\"The remaining balance is too small\");\r\n\t\t\r\n\t\tcalculateInterestForEtherDeposited(msg.sender);\r\n\r\n\t\tmsg.sender.transfer(_amount);\r\n\t\t\r\n\t\ttotalEtherDeposited -= _amount;\r\n\t\tavailableValueOf[msg.sender] -= _amount;\r\n        etherBalanceOf[msg.sender] -= _amount;\r\n\r\n\t\tuint payedInterest = 0;\r\n\t\tif (etherBalanceOf[msg.sender] == 0) {\r\n        \thasDepositedEther[msg.sender] = false;\r\n        \tdepositEtherStart[msg.sender] = 0;\r\n\t\t\ttokenContract.mint(msg.sender, unpayedInterestForEther[msg.sender]);\r\n\t\t\tpayedInterest = unpayedInterestForEther[msg.sender];\r\n\t\t\tunpayedInterestForEther[msg.sender] = 0;\r\n\t\t}\r\n\r\n\t\temit Withdraw(msg.sender, _amount,  0, payedInterest, block.timestamp);\r\n\t}\r\n\r\n\tfunction withdrawToken(uint _amount) public {\r\n\t\trequire(hasDepositedToken[msg.sender], \"Did not make any deposits yet\");\r\n\t\trequire(tokenBalanceOf[msg.sender] >= _amount, \"Withdraw amount is bigger the the balance\");\r\n\t\trequire(availableValueOf[msg.sender] >= _amount, \"Withdraw amount is bigger the the available balance\");\r\n\t\trequire(tokenBalanceOf[msg.sender] ==_amount || etherBalanceOf[msg.sender] - _amount >= 1e16,\r\n\t\t\t\"The remaining balance is too small\");\r\n\t\t\r\n\t\tcalculateInterestForTokenDeposited(msg.sender);\r\n\r\n\t\ttokenContract.transfer(msg.sender, totalTokenDeposited);\r\n\t\t\r\n\t\ttotalTokenDeposited -= _amount;\r\n\t\ttokenBalanceOf[msg.sender] -= _amount;\r\n\t\tavailableValueOf[msg.sender] -= _amount;\r\n\r\n\t\tuint payedInterest = 0;\r\n\t\tif (tokenBalanceOf[msg.sender] == 0) {\r\n\t\t\thasDepositedToken[msg.sender] = false;\r\n\t\t\tdepositTokenStart[msg.sender] = 0;\r\n\t\t\tpayTokenTo(msg.sender, unpayedInterestForToken[msg.sender]);\r\n\t\t\tpayedInterest = 0;\r\n\t\t\tunpayedInterestForToken[msg.sender] = 0;\r\n\t\t}\r\n\r\n\t\temit Withdraw(msg.sender, 0, _amount, payedInterest, block.timestamp);\r\n\t}\r\n\r\n\tfunction borrowEther(uint _amount) public {\r\n\t\trequire(collateral * availableValueOf[msg.sender] * conversionRate >= 100 * _amount, \"Balance too small\");\r\n\t\trequire(totalEtherDeposited >= _amount, \"Not enough founds\");\r\n\r\n\t\tmsg.sender.transfer(_amount);\r\n\r\n\t\tif (hasBorrowedEther[msg.sender]) {\r\n\t\t\tcalculateInterestForEtherBorrowed(msg.sender);\r\n\t\t} else {\r\n\t\t\thasBorrowedEther[msg.sender] = true;\r\n\t\t\tloanEtherStart[msg.sender] = block.timestamp;\r\n\t\t}\r\n\t\tavailableValueOf[msg.sender] -= _amount  * conversionRate * 10000 / collateral;\r\n\t\tetherBorrowedBy[msg.sender] -= _amount;\r\n\r\n\t\ttotalEtherDeposited -= _amount;\r\n\r\n\t\temit Borrow(msg.sender, _amount, 0, block.timestamp);\r\n\t}\r\n\r\n\t\r\n\tfunction borrowToken(uint _amount) public {\r\n\t\trequire(collateral * availableValueOf[msg.sender] >= 100 * _amount, \"Balance too small\");\r\n\r\n\t\tpayTokenTo(msg.sender, _amount);\r\n\r\n\t\tif (hasBorrowedToken[msg.sender]) {\r\n\t\t\tcalculateInterestForTokenBorrowed(msg.sender);\r\n\t\t} else {\r\n\t\t\thasBorrowedToken[msg.sender] = true;\r\n\t\t\tloanTokenStart[msg.sender] = block.timestamp;\r\n\t\t}\r\n\t\tavailableValueOf[msg.sender] -= 10000 *_amount / collateral;\r\n\t\ttokenBorrowedBy[msg.sender] += _amount;\r\n\r\n\t\temit Borrow(msg.sender, _amount, 0, block.timestamp);\r\n\t}\r\n\r\n\tfunction payOffEther() public payable {\r\n\t\trequire(hasBorrowedEther[msg.sender], \"No active loan\");\r\n\t\t\r\n\t\tcalculateInterestForEtherBorrowed(msg.sender);\r\n\t\trequire(msg.value >= dueInterestForEther[msg.sender], \"The amount does not cover the interest\");\r\n\r\n\t\tuint payOff = msg.value - dueInterestForEther[msg.sender];\r\n\t\tif (payOff > etherBorrowedBy[msg.sender]) {\r\n\t\t\tmsg.sender.transfer(payOff - etherBorrowedBy[msg.sender]);\r\n\t\t\tpayOff = etherBorrowedBy[msg.sender];\r\n\t\t}\r\n\t\tdueInterestForEther[msg.sender] = 0;\r\n\t\tetherBorrowedBy[msg.sender] -= payOff;\r\n\t\tavailableValueOf[msg.sender] += payOff  * conversionRate * 10000 / collateral;\r\n\r\n\t\ttotalEtherDeposited += msg.value;\r\n\r\n\t\tif (etherBorrowedBy[msg.sender] == 0) {\r\n\t\t\thasBorrowedEther[msg.sender] = false;\r\n\t\t\tloanEtherStart[msg.sender] = 0;\r\n\t\t}\r\n\r\n\t\temit PayOff(msg.sender, payOff, 0, msg.value - payOff, block.timestamp);\r\n\t}\r\n\r\n\tfunction payOffToken(uint _amount) public payable {\r\n\t\trequire(hasBorrowedToken[msg.sender], \"No active loan\");\r\n\r\n\t\tcalculateInterestForTokenBorrowed(msg.sender);\r\n\t\trequire(msg.value >= dueInterestForEther[msg.sender], \"The amount does not cover the interest\");\r\n\r\n\t\tuint interest = dueInterestForEther[msg.sender];\r\n\t\tif (msg.value > interest) {\r\n\t\t\tmsg.sender.transfer(msg.value - interest);\r\n\t\t}\r\n\t\tdueInterestForEther[msg.sender] = 0;\r\n\t\ttokenBorrowedBy[msg.sender] -= _amount;\r\n\t\tavailableValueOf[msg.sender] += 10000 *_amount / collateral;\r\n\t\t\r\n\t\tif (tokenBorrowedBy[msg.sender] == 0) {\r\n\t\t\thasBorrowedToken[msg.sender] = false;\r\n\t\t\tloanTokenStart[msg.sender] = 0;\r\n\t\t}\r\n\t}\r\n}",
  "sourcePath": "/home/adrian/Desktop/DecentralizedBank/src/contracts/dBank.sol",
  "compiler": {
    "name": "solc",
    "version": "0.7.6+commit.7338295f.Emscripten.clang"
  },
  "schemaVersion": "3.4.1",
  "updatedAt": "2021-07-13T16:11:26.704Z",
  "devdoc": {
    "kind": "dev",
    "methods": {},
    "version": 1
  },
  "userdoc": {
    "kind": "user",
    "methods": {},
    "version": 1
  }
}